:020000040800F2
:1000000000500020B1450008A51C0008A91C0008EC
:10001000AD1C0008B11C0008B51C00080000000061
:10002000000000000000000000000000B91C0008F3
:10003000BD1C000800000000C11C0008C51C000811
:10004000F9450008F9450008F9450008F945000898
:10005000F9450008F9450008F9450008F945000888
:10006000F9450008F9450008F9450008F945000878
:10007000FD0D0008210E0008B5100008F945000824
:10008000F9450008F9450008F9450008F945000858
:10009000F9450008F9450008F9450008F945000848
:1000A000F9450008F9450008F9450008F945000838
:1000B000F9450008F9450008F945000871040008F1
:1000C00059090008E50600087D090008F9450008FF
:1000D000F9450008C51300086D140008F94500082B
:1000E000F9450008F9450008F9450008000000003E
:1000F0000000000000000000000000000000000000
:0C01000000000000000000005FF808F1A3
:1001100010B5054C237833B9044B13B10448AFF341
:1001200000800123237010BD740D0020000000002A
:10013000EC97000808B5034B1BB103490348AFF324
:10014000008008BD00000000780D0020EC9700083A
:100150002DE9F043012883B00A9C00F2C7800546D0
:100160004FF4A0601F469046894602F0E3FC614BC5
:1001700004F128021E4605EB45001968800046F888
:10018000082B064418444A608068C4E90A13A4F89E
:100190000090012125712662C4F80880676202F090
:1001A00085FB236A0021186802F080FB226A524B0B
:1001B0001068984200F087800121082002F060FD5D
:1001C0000121084602F05CFD03231C25226A8DF8FC
:1001D00002305189138950680B436946ADF80030ED
:1001E0008DF8035002F01CF8236A434A1B689342BF
:1001F00065D0424A934204BF21238DF80430012385
:10020000002201A88DF805208DF806308DF8073002
:1002100001F02CFE236A384A1B6893424BD0374AC0
:10022000934204BF22238DF804300125002701A842
:100230008DF805708DF806708DF8075001F016FEE8
:1002400029462D4802F032FB04F1100639462A48AF
:1002500002F02CFB304602F087FA4FF480624FF434
:10026000804C23882648AB4023836283236AA2689C
:10027000A4F81CC0C4E904203146186802F00CFA46
:10028000236A2A4618684FF4E06102F0E7FA236A0D
:100290002946186802F078FA1A4B2573186810F08E
:1002A000020005D0A2682188174804F05BFC38469C
:1002B00003B0BDE8F08320238DF80430B5E71F2399
:1002C0008DF804309BE7002102F05EFA01214FF423
:1002D000001002F0E1FC00214FF4001002F0F4FCE9
:1002E00001214FF4001002F0D7FC65E74FF0FF301A
:1002F000DEE700BF0000002000540040005800402E
:100300000000FFBF280E00200C980008036A10B5FB
:1003100001210446186802F037FA0123237310BD47
:10032000036A10B500210446186802F02DFA002374
:10033000237310BD70B50446E3B1DAB1D1B11D46E7
:1003400090F8303003F0FF06A3B9036A80F831104B
:100350004263058780F8326018680121668702F0E1
:1003600037FA0123284684F8303094F83020002AE8
:10037000FBD170BD4FF0FF30F7E700BFD3B1CAB17A
:10038000C1B170B590F8304004F0FF06ACB91D461D
:100390000446036A80F831104263058780F83260B2
:1003A00018680121668702F013FA012384F83030BF
:1003B000284670BD4FF0FF3070474FF0FF3070BDE2
:1003C00070B50446CBB1C2B1B9B190F8300000F0BD
:1003D000FF0690B9012584F83110216A62632387F2
:1003E00084F8325008686687294602F0F1F984F8EB
:1003F000305094F83030002BFBD1608F70BD00BFBF
:10040000CBB1C2B1B9B170B590F8304004F0FF057E
:10041000A4B90126044680F83110016A42630387BB
:1004200080F8326008686587314602F0D1F984F8B7
:100430003060284670BD4FF0FF3070474FF0FF30FE
:1004400070BD00BF036A1B689A8A90070CD59A8A10
:100450001A8B9A8A9107FAD49A8AD20607D59A8A71
:100460001A8842F001021A809A8AD206F7D470479D
:100470008A4A136893423ED070B59A4282B0A3F183
:10048000280410D053F8083C85491B688B4205D1DD
:100490000BE053F8083C1B688B4206D0A36A9A42D3
:1004A000A3F12804F5D102B070BD236A1D68284667
:1004B00002F076FA7B4B984200F0AE801CD97A4B62
:1004C000984200F0868035D8784B98425BD0784BC4
:1004D0009842E8D1AA21012302AA02F8011D666A06
:1004E00019462046B0470346284619468DF807307E
:1004F00002F0BEF9D7E77047B0F1021F00F0858027
:1005000069D96C4B984232D06B4B9842CBD16B4B34
:100510001B68980702D56A4804F08EFB94F83110E6
:10052000236A490094F8322001F0FE01186802F0B5
:10053000A5F9B8E7634B984242D002339842B2D152
:10054000638F228F9A4270D95C4B1B689E0702D53D
:100550005D4804F071FB616B638F206A9BB25A1C8B
:1005600092B200686287C95C02F082F99BE7284674
:1005700002F080F902AA02F8010D656A2046012303
:100580000221A8478FE7638F228F9A426DD84B4B89
:1005900094F831201B6803F00203002A53D013B1F2
:1005A0004A4804F049FB236A186802F063F9236A99
:1005B0000121186802F018F9002384F8313072E73D
:1005C0003E4B1B6899077FF56EAF414804F034FB42
:1005D00069E7BB217FE710287FF465AF236A1B68BA
:1005E0009A8A940704D59A8A1A8B9A8A9007FAD421
:1005F0009A8AD1067FF557AF9A8A1A8842F001028B
:100600001A809A8AD206F7D44DE70023656A1A4603
:1006100019462046A84746E7284B1B689A077FF5EE
:1006200042AF2C4804F008FB3DE794F8313003F06A
:10063000FF02002B2ED0214B1B689D07B7D5264803
:1006400004F0FAFAB3E713B1244804F0F5FA626B48
:100650000321638F656A2046A847236A186802F061
:1006600009F9002384F830301DE7236A186802F086
:1006700001F9656B638F11499BB25A1C92B2628774
:10068000E8540B689B077FF50EAF0146144804F051
:1006900069FA08E784F8302005E700BF0000002071
:1006A00000540040020003008400060040000300E4
:1006B000820006004000020001000300280E002016
:1006C00040980008820007005C9800084C980008D9
:1006D000449800084898000860980008509800085E
:1006E000549800088A4A136893423ED070B59A42E3
:1006F00082B0A3F1280410D053F8083C85491B6848
:100700008B4205D10BE053F8083C1B688B4206D0A6
:10071000A36A9A42A3F12804F5D102B070BD236AFE
:100720001D68284602F03CF97B4B984200F0AE80F1
:100730001CD97A4B984200F0868035D8784B984285
:100740005BD0784B9842E8D1AA21012302AA02F893
:10075000011D666A19462046B047034628461946D9
:100760008DF8073002F084F8D7E77047B0F1021F28
:1007700000F0858069D96C4B984232D06B4B98421F
:10078000CBD16B4B1B68980702D56A4804F054FA2A
:1007900094F83110236A490094F8322001F0FE01E8
:1007A000186802F06BF8B8E7634B984242D0023306
:1007B0009842B2D1638F228F9A4270D95C4B1B68EA
:1007C0009E0702D55D4804F037FA616B638F206A9B
:1007D0009BB25A1C92B200686287C95C02F048F86A
:1007E0009BE7284602F046F802AA02F8010D656A66
:1007F000204601230221A8478FE7638F228F9A4268
:100800006DD84B4B94F831201B6803F00203002A8B
:1008100053D013B14A4804F00FFA236A186802F063
:1008200029F8236A0121186801F0DEFF002384F80B
:10083000313072E73E4B1B6899077FF56EAF414838
:1008400004F0FAF969E7BB217FE710287FF465AF70
:10085000236A1B689A8A940704D59A8A1A8B9A8A03
:100860009007FAD49A8AD1067FF557AF9A8A1A88E8
:1008700042F001021A809A8AD206F7D44DE700238B
:10088000656A1A4619462046A84746E7284B1B6862
:100890009A077FF542AF2C4804F0CEF93DE794F873
:1008A000313003F0FF02002B2ED0214B1B689D0737
:1008B000B7D5264804F0C0F9B3E713B1244804F0D3
:1008C000BBF9626B0321638F656A2046A847236AE0
:1008D000186801F0CFFF002384F830301DE7236A49
:1008E000186801F0C7FF656B638F11499BB25A1CF2
:1008F00092B26287E8540B689B077FF50EAF014602
:10090000144804F02FF908E784F8302005E700BF09
:100910000000002000580040020003008400060090
:1009200040000300820006004000020001000300B6
:10093000280E002040980008820007005C980008FC
:100940004C980008449800084898000860980008EF
:10095000509800085498000808B50649064802F067
:1009600047F800B908BD03490348BDE8084002F054
:100970004DB800BF000400010054004008B506490E
:10098000064802F035F800B908BD03490348BDE840
:10099000084002F03BB800BF0004000100580040CE
:1009A0002DE9F0470E4682B0002800F0C2800128F1
:1009B00000F0DB80022800F0C780B568B389A84644
:1009C0006C6A58F8107B04F1100903B1EB814FF009
:1009D000000A4FF0030C18226989AB8968680B4341
:1009E000756001A9C6F800A0ADF804308DF806C006
:1009F0008DF8072001F014FC1022B36801A9B3F8A8
:100A00000EC05868ADF804C08DF8072001F008FC4E
:100A10004FF0280CB26801A95068D389D0F80CE0D7
:100A2000128943EA0E03C360ADF804208DF807C0B5
:100A300001F0F6FB404602F03FFA4FF082732B6163
:100A4000B27B4FF40073102A0CBF4FF40062524681
:100A5000A5F81EA0AA82C5F81A30B37C032B03D8D0
:100A6000DFE803F063025B5F4FF48033C5F81630B4
:100A70000021384602F08EFAB1683846103102F093
:100A8000A9F90121384602F027FA0121084602F0AF
:100A9000EBF8484601F0F0FAA06801F035FA20685A
:100AA00001F032FA002380254FF40050E2682362FF
:100AB000C4E90A332363A36353B207F10C01002B8B
:100AC00065626063216108DB012102F01F022D488D
:100AD0005B0901FA02F240F8232001220221A068FA
:100AE00001F0E4FA626853B2002B08DB012102F046
:100AF0001F0224485B0901FA02F240F82320206813
:100B00000122022101F0D2FA38460122032102F02B
:100B100009FA384602B0BDE8F0870223C5F816305E
:100B2000A6E7194BC5F81630A2E70023C5F8163022
:100B30009EE7164B012103F17802B36041F20400F5
:100B40005A6202F09DF838E7104B012103F1500280
:100B5000B26003F1F0024FF480405A6702F09CF853
:100B60000121092002F08CF827E7084B014603F128
:100B70002802B26003F1B40241F20900DA6402F023
:100B80007FF81AE700E100E00200010020000020E9
:100B900083685A68D989D36823EA0103D360704710
:100BA00083685A68DB89D1680B43D360704700BF04
:100BB00010B50446A3688021186802F00BFA0128DA
:100BC000F8D010BD70B50023102580268068446AD7
:100BD000616120686119E2616662A561C4E90B3355
:100BE000A36201F029FA20680121BDE8704001F0FC
:100BF00051BA00BFF8B51025002320278026806851
:100C0000446A616120686119E26127636662A561D7
:100C1000C4E90A3301F010FA20680121BDE8F84068
:100C200001F038BA38B5002380258068446A6161D4
:100C3000A06804F11001E26165622363A361C4E965
:100C40000A3301F0F9F9A0680121BDE8384001F04C
:100C500021BA00BF70B50023202680258068446A31
:100C60006161A06804F11001E26126636562A3611D
:100C7000C4E90A3301F0E0F9A0680121BDE8704041
:100C800001F008BAF8B54FF0200C10264FF480732D
:100C900000274FF480658068446A61612068A1196B
:100CA000E261C4F830C06762A661C4E90A3501F0A8
:100CB000C3F920680121BDE8F84001F0EBB900BF9D
:100CC000F8B54FF0000C10264FF4807380274FF4D6
:100CD00080658068446A61612068A119E261C4F896
:100CE00030C06762A661C4E90A3501F0A5F9206841
:100CF0000121BDE8F84001F0CDB900BFF8B50023EF
:100D000080274FF480664FF480758068446A616183
:100D1000A06804F11001E2616762C4E90A56236326
:100D2000A36101F089F9A0680121BDE8F84001F054
:100D3000B1B900BFF8B54FF0200C4FF48073802795
:100D400000264FF480658068446A6161A06804F100
:100D50001001E261C4F830C06762A661C4E90A35D7
:100D600001F06AF9A0680121BDE8F84001F092B9EC
:100D700083681A68138823F040031B041B0C13803C
:100D8000138823F400631B041B0C1380138843F0A7
:100D900040031380704700BF83681A68138823F0EC
:100DA00040031B041B0C1380138843F4006313805F
:100DB000138843F040031380704700BF0A4A30B4E1
:100DC00013685B08036013689908DA081D095C0959
:100DD000416082609909DA091B0AC0E9035430BCFA
:100DE000C0E90512C3617047AC0300200822024B22
:100DF00002700B60704700BF000E002008B5202075
:100E000001F07CF9012800D008BD0448002101F060
:100E100041F9BDE80840202001F07EB91C000240E5
:100E200008B54FF4007001F069F9012800D008BD41
:100E30000448002101F02EF9BDE808404FF400708D
:100E400001F06AB9300002402DE9F04F914E04469E
:100E500030688846C10683B093461D466BD4002C8B
:100E60007CD0012C00F00881022C00F0F4800121DC
:100E700004240326084601F003FFAA688DF80660E3
:100E80005189938950680B430DEB0401ADF8043090
:100E90008DF8074001F0C4F90DEB04018DF807400F
:100EA0001824AB68DA895868ADF8042001F0B8F965
:100EB000AA6801A95068D389C66812893343C36000
:100EC0008DF80740ADF8042001F0AAF9AE680023C0
:100ED000B146746A59F8107B04F1100A6B602E60F9
:100EE000C5F818806C4BBBF1000F03D0C5F814B0E7
:100EF000C3F800B038465D6001F036FF0021384687
:100F000002F048F8484601F0D7FF00234FF4E022F2
:100F10003361C6F81A30C6F81E20AB7B102B14BF05
:100F200000234FF40063B382AB7C032B21D8DFE8AE
:100F300003F08A208E86594803F07EFE3368DA0675
:100F40008DD5A97B564803F00DFE3368DB0686D5A8
:100F5000A97C544803F006FE002C82D1524B01219B
:100F600003F17802AB6041F204005A6201F088FE9E
:100F70007DE74FF48033C6F816304946384601F015
:100F800029FF0121084601F06FFE504601F074F878
:100F90004FF4806300254FF480714FF4005280209D
:100FA0002026E36207F10C03C4E90901C4E90C62DD
:100FB0002361A0682562A56300F0A6FFD8F8002091
:100FC000B8F804305146C4E90525E361A06801F092
:100FD00033F80121A06801F05DF8206800F094FF6B
:100FE0001023D8F80820B8F80C005146C4E90630A0
:100FF00062612068266301F01FF80121206801F07A
:1010000049F8E26853B2AB4208DB012102F01F024B
:1010100026485B0901FA02F240F82320A068012269
:10102000022101F043F83846012101F055FF38460E
:101030000122032101F076FF03B0BDE8F08F1C4BC5
:10104000C6F8163099E70023C6F8163095E7022354
:10105000C6F8163091E7144B012103F15002AA6043
:1010600003F1F0025A674FF4804001F015FE0121B0
:10107000082001F005FEFAE60B4B214603F1280299
:10108000AA6003F1B40241F20800DA6401F0F8FD4D
:10109000EDE600BF280E0020900D002064980008A7
:1010A00080980008A09800084C01002000E100E0B2
:1010B0000200010008B54FF4005001F01FF80128AC
:1010C00009D1054BD3E900209047BDE808404FF413
:1010D000005001F021B808BD900D002048B130B596
:1010E000056883B01DB1436B0BB1036A13B903B03C
:1010F00030BD70470446406B03F086FA2063206AD7
:1011000003F082FA0023444AE061954284F82C30CF
:101110006385E384238584F8243084F8383084F8A8
:101120003930638758D03D4B9D4263D0182203234A
:1011300001A93B488DF807208DF8063001F070F8C2
:101140002368354A93423FD0344A934204BF082370
:10115000ADF80430282301A931488DF8073001F09B
:101160005FF8211D206801F0B3FF012240F22551F4
:10117000206802F031F84FF4E06000F06DFE236863
:10118000254A93421BD0254A934213D0012504F1EE
:101190001400E57500F06AFE2946206802F010F898
:1011A00023681D4A934214D01C4A934204BF1D4B2E
:1011B0005C609CE7262206232275A375E6E72522BC
:1011C00005232275A375E1E74FF48063ADF8043081
:1011D000C0E7144B1C608AE7012144F2050001F0CE
:1011E0004FFD23680C4A93420ED14FF40073ADF8C3
:1011F00004309BE70121052001F042FD01214FF45D
:10120000003001F049FDECE7044A934204BF042397
:10121000ADF804308AE700BF0038014000440040C8
:1012200000080140980D0020034643F8041F1946AA
:10123000006801F04DBF00BF002833D0036B70B5CC
:1012400004463BB1006B0021626B02F073FF206B20
:1012500003F0E2F9E3693BB1E0690021226A02F0A0
:1012600069FFE06903F0D8F92646002556F8140B0B
:101270002A4640F22551E57501F0AEFF304600F0F8
:10128000F5FD2946206801F09BFF206801F0C8FEAB
:101290002368064A934206D0054A934204BF054B91
:1012A0005D6070BD7047034B1D6070BD003801402C
:1012B00000440040980D0020C38C70B50446006ABD
:1012C0000133B3FBF0F200FB1233228D934226D0A0
:1012D000638D0D4601339BB26385E269E38C9BB25B
:1012E000D154E38C216A5A1CB2FBF1F301FB1323A6
:1012F0009BB2E38494F82C3003F0FF066BB9012213
:1013000040F2277184F82C20206801F065FF3246F6
:10131000206840F2255101F05FFF284670BD4FF074
:10132000FF35FAE72DE9F843002A48D0C38C056A57
:101330000133B3FBF5F405FB1433048D91F800C0C1
:10134000A3423CD0904604460E46002501270BE000
:10135000E38C216A0133B3FBF1F201FB1233228DDE
:1013600016F801CF934227D0638D01339BB263857A
:10137000E269E38C9BB202F803C0E38C216A5A1C39
:10138000B2FBF1F301FB13239BB2E38494F82C30FE
:1013900003F0FF096BB9012240F22771206884F83D
:1013A0002C7001F019FF4A4640F22551206801F0E7
:1013B00013FF0135A845CBD12846BDE8F8830025A9
:1013C000FAE700BF284B70B51C68002C36D040F2FD
:1013D0002551206801F0D4FF90B1628F616B2368C2
:1013E00091423ED0012000219E88256B638F9BB2E5
:1013F0001A1892B26287EE5484F8380084F83910D3
:1014000040F22771206801F0BBFFB8B1228DE38C58
:1014100020689BB2934212D0E269238D9BB2D35CC9
:101420008380238D216A5A1CB2FBF1F301FB132345
:101430009BB22385638D013B9BB2638570BD002207
:1014400040F2277101F0C8FE012240F225512068C8
:1014500001F0C2FE002384F82C30E38423856385E9
:1014600070BD9B8870BD00BF980D0020284B70B5E3
:101470005C68002C36D040F22551206801F080FFD6
:1014800090B1628F616B236891423ED001200021B0
:101490009E88256B638F9BB21A1892B26287EE54B6
:1014A00084F8380084F8391040F22771206801F080
:1014B00067FFB8B1228DE38C20689BB2934212D0B3
:1014C000E269238D9BB2D35C8380238D216A5A1CF1
:1014D000B2FBF1F301FB13239BB22385638D013B28
:1014E0009BB2638570BD002240F2277101F074FE4B
:1014F000012240F22551206801F06EFE002384F89D
:101500002C30E3842385638570BD9B8870BD00BF4C
:10151000980D002090F83830D3B190F83930417EE2
:10152000DBB25A1CD2B2994280F8392010D800227E
:101530000121036C10B580F838200446817680F8CC
:10154000392013B1006B618F98470023638710BD6A
:10155000704700BF70B540F225510446006801F0A5
:101560000FFF90B1638F626B21689A422CD00125E6
:1015700000208E88216B638F9BB25A1992B26287CA
:10158000CE5484F8385084F8390040F2277120682E
:1015900001F0F6FEB8B1228DE38C20689BB2934235
:1015A00014D0E269238D9BB2D35C8380238D216AA2
:1015B0005A1CB2FBF1F301FB13239BB22385638D0D
:1015C000013B9BB2638570BD8B8870BD002240F2E9
:1015D000277101F001FE012240F22551206801F03F
:1015E000FBFD002384F82C30E3842385638570BDE4
:1015F000F8B5364D06462C6814B1237E002B35D144
:101600006C680CB1237E0BB93046F8BDE38C216ABF
:101610000133B3FBF1F201FB1233228D9342F3D07D
:10162000638D01339BB26385E269E38C9BB2D65430
:10163000E38C216A5A1CB2FBF1F301FB13239BB22A
:10164000E38494F82C3003F0FF05002BDCD1012259
:10165000206884F82C2040F2277101F0BDFD2A4655
:10166000206840F2255101F0B7FDCDE7E38C216AF7
:101670000133B3FBF1F201FB1233228D9342BFD051
:10168000638D01339BB26385E269E38C9BB2D054D6
:10169000E38C216A5A1CB2FBF1F301FB13239BB2CA
:1016A000E38494F82C3003F0FF07002BA8D101222B
:1016B000206884F82C2040F2277101F08DFD3A4615
:1016C000206840F2255101F087FD99E7980D002030
:1016D000F8B54468061DA64217D005460027183CF9
:1016E0002A78E388A0681341DB074CBF236963694C
:1016F00098472B786A780133DBB29A422B7005D079
:10170000A3699E42A3F11804EAD1F8BD2F70A36922
:101710009E42A3F11804E3D1F8BD00BF024AD3688A
:1017200043F40053D360704700100140024AD3686D
:1017300023F40053D36070470010014030B50121FD
:1017400083B0102001F09CFA02254FF400521023C0
:10175000084C01A920468DF807308DF80650ADF8E9
:10176000042000F05DFDE36843F40053E36003B040
:1017700030BD00BF0010014010B5144C1449E3689F
:10178000032243F48053E360E36801F1180023F47B
:101790008053E360E36843F48053E360E36823F439
:1017A0008053E360E36843F48053E36000F0ECFAB5
:1017B000E368084A23F48053E3601368DB0700D42E
:1017C00010BD0548BDE8104003F036BA000C0140DA
:1017D00078020020280E0020B898000800232DE988
:1017E000F041042286B043545A49044603F06CFA8F
:1017F00020BB594D2B68DA0700F18780574CDFF882
:10180000848104F1C007A4F1180601E0BC420FD0A6
:1018100020460322314600F0B7FA2B681834DB0764
:10182000F4D502460B46404603F09CF9BC42EFD18A
:101830002B68D8075DD406B0BDE8F0810422484982
:10184000204603F041FA50BB434B1B68DA0760D4D3
:10185000444E002334464FF4FA6254F8D85F4249AC
:10186000A542CDF80A30CDF80E300193CDF81230F4
:10187000ADF81630ADF8082003914ED0A5F10C0359
:1018800004E0DA68A242A2F10C0346D09A688A42C8
:10189000F7D19A88B2F5FA6FF3D1002750E02046CD
:1018A0000422324903F010FA0028C4D12A4B1B68E5
:1018B000DB074AD42B4C54F8D80FA042BBD02C4B9A
:1018C0000C381D68AA6804E0C368A342A3F10C00A9
:1018D000B1D083689A42F7D1A98883889942F3D11D
:1018E000D0E9032353601A6006B0BDE8F04102F06E
:1018F00093BE0A2003F04AF92B68D9079BD51D48EF
:1019000006B0BDE8F04103F097B91B4803F094F925
:1019100074E71A4803F090F99AE7142002F074FE75
:101920000746844600F10C080DF1040EBEE80F00D6
:10193000ACE80F00C5F80480C7E90354C6F8D880A6
:101940000B4B1F6006B0BDE8F0810D4803F074F941
:10195000B0E700BFC0980008280E002090020020C9
:1019600000990008780200207917000824990008DF
:10197000240E0020E8980008C8980008089900087C
:101980002C990008DC98000810B5012182B00820CD
:1019900001F076F903244FF48052102301A908487E
:1019A000ADF804208DF807308DF8064000F038FCC3
:1019B000044AD36823F48053D36002B010BD00BF43
:1019C000000C0140001001402DE9F041124C134D74
:1019D000DFF84C8004F1C007A4F1180601E0A7422B
:1019E0000FD003222046314600F0CEF92B68183480
:1019F000DA07F4D502460B46404603F0B3F8A74297
:101A0000EFD12B68DB0701D4BDE8F0810A20BDE8E7
:101A1000F04103F0BBB800BF90020020280E002068
:101A2000DC98000830B400244FF41F053A4B3B49C2
:101A3000186882B040F00100186058681A460140EA
:101A40005960196821F0847121F480311960196896
:101A500021F480211960596821F4FE0159609D60CC
:101A600000940194196841F48031196003E0009BEF
:101A7000B3F5A06F09D0136803F400330193009B02
:101A800001330093019B002BF1D0234B1B6813F40F
:101A9000003318BF01230193019B012B06D04FF0A7
:101AA00000621F4B9A6002B030BC70471D491A4B50
:101AB00008681A4640F010000860086820F0070027
:101AC0000860086840F00200086059685960596869
:101AD0005960596841F480615960596821F47C115A
:101AE0005960596841F4E8115960196841F08071F2
:101AF000196013689B01FCD55368074923F0030361
:101B00005360536843F0020353604B6803F00C03C7
:101B1000082BFAD1C3E700BF001002400000FFF815
:101B200000ED00E000200240114A536803F00C036E
:101B3000082B0ED153685168C3F38343C90303F1E3
:101B4000020310D5526892030DD40A4A02FB03F334
:101B500000E0084B064A08495268C2F303128A5C47
:101B6000D3400B617047054A02FB03F3F2E700BF65
:101B70000010024000127A009C03002000093D0082
:101B8000704700BF0120704708B502F037FD1623EB
:101B900003604FF0FF3008BD08B502F02FFD16239B
:101BA0000360FEE770B5161E07DD0C468D19AFF316
:101BB000008004F8010BA542F9D1304670BD00BF8A
:101BC00070B5161E07DD0C468D1914F8010BFFF7D2
:101BD0000FFDAC42F9D1304670BD00BF0C4A08B5CC
:101BE000136833B169461844884209D81060184612
:101BF00008BD08490B461160694618448842F5D96A
:101C000002F0FCFC0C224FF0FF330260184608BDC6
:101C1000A00D0020300E00204FF0FF30704700BFB5
:101C20004FF4005300204B60704700BF0120704705
:101C3000002070470EB44FF0FF3003B0704700BF74
:101C400008B502F0DBFC0A2303604FF0FF3008BD4B
:101C500008B502F0D3FC022303604FF0FF3008BD4B
:101C60004FF0FF30704700BF4FF4005300204B602F
:101C7000704700BF08B502F0C1FC1F2303604FF09E
:101C8000FF3008BD08B502F0B9FC0B2303604FF02C
:101C9000FF3008BD08B502F0B1FC0C2303604FF023
:101CA000FF3008BD704700BFFEE700BFFEE700BF82
:101CB000FEE700BFFEE700BF704700BF704700BFF0
:101CC000704700BF024A136801331360704700BFBA
:101CD000200E0020002A2DE9F0414FF000064FF0C1
:101CE000000715DDA0F1080404EBC208A1F1080506
:101CF000F5E90223F4E9020101F028FD02460B4652
:101D00003046394601F06CFBA04506460F46EFD140
:101D1000064B1B689B0704D532463B46044802F03D
:101D200021FF30463946BDE8F08100BF280E002073
:101D300058990008F0B501F1004383B00E461946EA
:101D4000074607F04DFB00220C4B01F049FB0B4608
:101D500002460A49002001F023FE094B04461B6895
:101D60000D469B0706D53A463346CDE90045054862
:101D700002F0F8FE2046294603B0F0BD0000F03F17
:101D8000280E0020649900082DE9F043002A83B052
:101D90004FF000044DDD254600EBC202A2F1080819
:101DA000A0F10806A1F10807F7E90223F6E902010C
:101DB00001F0CCFC02460B462046294601F010FB00
:101DC000B04504460D46EFD101F1004107F008FB94
:101DD00000221B4B01F004FB02460B460020184971
:101DE00001F0DEFD80468946164E3368990704D41B
:101DF0004046494603B0BDE8F08322462B461248D0
:101E000002F0B0FE33689A07F2D52B462246CDE9A0
:101E100000890E4802F0A6FE33689B07E8D54246CB
:101E20004B460B4802F09EFE4046494603B0BDE8D3
:101E3000F0834FF00008DFF81C902546D4E700BF80
:101E40000000F03F280E002058990008649900080F
:101E5000789900080000E03F40F0BF60024B40F47A
:101E60000030D860704700BF00ED00E0F0B40124FE
:101E70000178C37801F01F0294404E092BB90F4B33
:101E8000203643F82640F0BC70470D4B4778DD689C
:101E90008278E8430F23C0F30220C0F10405C34059
:101EA00007FA05F513402B43044A1B01DBB211442A
:101EB00081F8003342F82640F0BC704700E100E0B2
:101EC00000ED00E021F0604121F07F01014B014372
:101ED0009960704700ED00E0044A136919B923EADC
:101EE00000001061704718431061704700ED00E07A
:101EF000044A042813680CBF43F0040323F00403CE
:101F00001360704710E000E010B44FF6FE74002339
:101F100002683B492240884202600360436083605C
:101F2000C36026D0374B984237D0374B984227D0E2
:101F3000364B984238D0364B98423CD0354B98427D
:101F400025D0354B984242D0344B984245D0344B43
:101F5000984248D0334B984233D0334B984248D0C4
:101F6000324B98420AD1324A536843F4702353608B
:101F700004E0304A536843F00F03536010BC7047CD
:101F80002C4A10BC536843F4706353607047294A6D
:101F9000536843F470035360F0E7264A10BC53685B
:101FA00043F0F00353607047224A10BC536843F477
:101FB0007043536070471F4A536843F47023536063
:101FC000DCE71B4A536843F470635360D6E7194A51
:101FD000536843F070635360D0E7154A536843F089
:101FE0000F035360CAE7124A536843F0F00353608B
:101FF000C4E70F4A536843F470435360BEE700BF21
:10200000080002401C000240300002404400024030
:10201000580002406C000240800002400804024068
:102020001C040240300402404404024058040240B0
:1020300000040240000002408B6830B40C6A0A6958
:1020400023434C6913438A692343CC694D6A134384
:10205000026823438C6A2B4322F4FF42CD6823435A
:1020600022F070021343D1E90041036045608460AF
:10207000C16030BC704700BF0023C0E90033C0E935
:102080000233C0E90433C0E90633C0E90833836290
:10209000704700BF29B94FF6FE7203681340036012
:1020A0007047036843F001030360704703681AB97F
:1020B00023EA01010160704719430160704700BFC6
:1020C00041607047406880B2704700BFC3004CBF9A
:1020D000034B044B1B68034214BF012000207047D0
:1020E0000004024000000240C3004CBF014B024B01
:1020F000586070470004024000000240C3004CBF1B
:10210000034B044B1B68184214BF0120002070478A
:102110000004024000000240C3004CBF014B024BD0
:1021200058607047000402400000024008B52F4B81
:1021300098421CD02E4B984223D02E4B98422AD046
:102140002D4B984231D02D4B984206D02C4B9842C3
:1021500041D02C4B984232D008BD0121402000F0E4
:10216000A7FDBDE808400021402000F0A1BD0121ED
:10217000042000F09DFDBDE808400021042000F08F
:1021800097BD0121082000F093FDBDE80840002123
:10219000082000F08DBD0121102000F089FDBDE870
:1021A00008400021102000F083BD0121202000F014
:1021B0007FFDBDE808400021202000F079BD01210D
:1021C0004FF4807000F074FDBDE8084000214FF42A
:1021D000807000F06DBD0121802000F069FDBDE838
:1021E00008400021802000F063BD00BF00080140CE
:1021F000000C014000100140001401400018014093
:10220000001C014000200140012108B5084600F0F3
:102210004FFDBDE808400021012000F049BD00BF8E
:1022200030B4CC78E30648BF8B7804F00F0548BF84
:102230001D430B8813F0FF0F33D0482C026800F0C9
:10224000F480282C00F03381D90744BF22F00F021C
:102250002A43990744BF22F0F00242EA05125907C7
:1022600044BF22F4706242EA0522190744BF22F4F7
:10227000704242EA0532D90644BF22F4702242EA93
:102280000542990644BF22F4700242EA05525906FB
:1022900044BF22F0706242EA0562190600F104812F
:1022A0000260FF2B4BD9282C42684AD0482C40F0C2
:1022B0008E80D90505D54FF4807122F00F022A4394
:1022C00001619C0506D54FF4007122F0F00242EA4C
:1022D00005120161590506D54FF4806122F4706240
:1022E00042EA052201611C0506D54FF4006122F483
:1022F000704242EA05320161D90406D54FF480519B
:1023000022F4702242EA054201619C0406D54FF492
:10231000005122F4700242EA05520161590406D5C7
:102320004FF4804122F0706242EA056201611C04B0
:1023300004D54FF4004365F31F720361426030BC63
:102340007047D90505D54FF4807122F00F022A435A
:1023500041619C0506D54FF4007122F0F00242EA7B
:1023600005124161590506D54FF4806122F470626F
:1023700042EA052241611C0506D54FF4006122F4B2
:10238000704242EA05324161D90406D54FF48051CA
:1023900022F4702242EA054241619C0406D54FF4C2
:1023A000005122F4700242EA05524161590406D5F7
:1023B0004FF4804122F0706242EA056241611B04E1
:1023C000BCD54FF4004365F31F724361B6E7D905EE
:1023D00044BF22F00F022A439C0544BF22F0F002C2
:1023E00042EA0512590544BF22F4706242EA05220E
:1023F0001C0544BF22F4704242EA0532D90444BFAE
:1024000022F4702242EA05429C0444BF22F4700286
:1024100042EA0552590444BF22F0706242EA056262
:102420001C048BD565F31F7288E7D90704D50121F9
:1024300022F00F022A430161990705D5022122F0FB
:10244000F00242EA05120161590705D5042122F480
:10245000706242EA05220161190705D5082122F4BC
:10246000704242EA05320161D90605D5102122F4F5
:10247000702242EA05420161990605D5202122F425
:10248000700242EA05520161590605D5402122F049
:10249000706242EA0562016119067FF501AF802191
:1024A00065F31F720161FBE665F31F72F8E6D90759
:1024B00004D5012122F00F022A434161990705D575
:1024C000022122F0F00242EA05124161590705D5C6
:1024D000042122F4706242EA05224161190705D500
:1024E000082122F4704242EA05324161D90605D53D
:1024F000102122F4702242EA05424161990605D575
:10250000202122F4700242EA05524161590605D5A4
:10251000402122F0706242EA0562416119067FF5AE
:10252000BFAE802165F31F724161B9E64FF6FF71BE
:102530000222042301808270C370704783681942AD
:1025400014BF012000207047806880B2704700BF30
:10255000C368194214BF012000207047C06880B2D0
:10256000704700BF01617047416170470AB941611E
:1025700070470161704700BFC160704741F480330C
:1025800083618161836183698369704710B44FF609
:102590008074044A13682340194341EA0011116012
:1025A00010BC704700000140014B1860704700BF2D
:1025B0001C0020420028194B00F44012B4BFDB6914
:1025C0005B68B2F5401F30B484B21ED0C20213D58E
:1025D0000322C0F30345AA4023EA020343F07063D9
:1025E00019B1420D1201944023430C4A0028B4BF94
:1025F000D361536030BC7047420D120104FA02F2FD
:1026000023EA020343F07063EAE7044D23F07063AA
:102610006A6822F070626A60E2E700BF0000014071
:1026200010B40F2401F0FC0303F1804303F5803361
:1026300001F003019A6889008C4022EA04029A6042
:102640009A6800FA01F11143996010BC704700BF0D
:10265000014B1860704700BFDC00204208B50D4BED
:10266000012198420AD04FF4800000F02DFBBDE814
:10267000084000214FF4800000F026BB4FF400100A
:1026800000F022FBBDE8084000214FF4001000F0EC
:102690001BBB00BF00540040F0B504460D4687B098
:1026A000868801A800F09AFA03982B4926F03F0685
:1026B000A1FB00313604890C360C8FB23E43A68054
:1026C00022882B6822F00102244E1204120CB3421D
:1026D00022801BD85B00B0FBF3F39BB2042B38BF06
:1026E000042301372784A38322881D4B42F0010273
:1026F00022802288A9886E8928891340AA893143BB
:102700000B4302432380228107B0F0BD4BF6FF72DA
:10271000EE8896421AD003EB830303EB8303B0FBEE
:10272000F3F39BB243F48043C3F30B020AB943F0C3
:1027300001034FF4967202FB01F10A4A43F400438D
:10274000A2FB0121890901312184CCE703EB43037A
:10275000B0FBF3F39BB2E7E783DE1B43A0860100E7
:10276000F5FBFFFFD34D621010B4002241F2883414
:102770004FF4804303498260C0E90041838110BC6B
:10278000704700BF0000FFBF038829B923F0010391
:102790001B041B0C0380704743F001030380704748
:1027A000838829B923F400631B041B0C83807047C2
:1027B00043F4006383807047838829B923F48053EE
:1027C0001B041B0C8380704743F480538380704745
:1027D000038829B923F480731B041B0C0380704702
:1027E00043F4807303807047038829B923F400738E
:1027F0001B041B0C0380704743F400730380704775
:10280000038829B923F480631B041B0C03807047E1
:1028100043F4806303807047838901F0FE019BB21B
:1028200023F0FE030B438381704700BF838929B9DE
:1028300023F001031B041B0C8381704743F0010349
:1028400083817047038829B923F040031B041B0CC4
:102850000380704743F040030380704783881AB9B0
:1028600023EA01018180704719438180704700BFCE
:1028700001827047008AC0B2704700BF22B901F0E0
:10288000FE0189B20182704741F0010189B20182E3
:10289000704700BF002382B001930190019B19444F
:1028A0000191019B188802B0704700BF038819B9D5
:1028B000C3F30E030380704743F400430380704763
:1028C0000388B1F5006F1BBF23F400631B0443F4BE
:1028D00000631B0C038070470388B1F5005F1BBFCA
:1028E00023F400531B0443F400531B0C0380704774
:1028F000038829B923F480531B041B0C0380704701
:1029000043F48053038070470388B1F5006F1BBF09
:1029100023F400631B0443F400631B0C0380704723
:10292000038829B923F020031B041B0C0380704784
:1029300043F0200303807047008B000A704700BFFC
:10294000038829B923F010031B041B0C0380704774
:1029500043F0100303807047038829B123F08003FC
:102960001B041B0C0380704743F0800303807047F7
:10297000838BB1F5804F1DBF23F480431B041B0CD8
:1029800043F4804383837047838A028B21F07F4026
:1029900043EA02431840401AB0FA80F040097047F9
:1029A000838A008B43EA004020F07F40704700BFDD
:1029B000002382B00A0F0093019301900092009BC4
:1029C00021F07F4153B1019B14330193019B1B689C
:1029D0000B4214BF0120002002B07047019B090C7C
:1029E00018330193F2E700BFC94389B2818270476F
:1029F0008388808A9BB2084006D003F4E06313EA20
:102A0000114314BF01200020704700BFC94389B2A1
:102A1000818270474FF41F000C4B0D4A196841F03A
:102A20000101196059680A405A601A6822F08472DC
:102A300022F480321A601A6822F480221A605A68DE
:102A400022F4FE025A609860704700BF00100240F6
:102A50000000FFF80C4BB0F5803F1A6822F480327A
:102A60001A601A6822F480221A6008D0B0F5802F0C
:102A700004D11A6842F4A0221A60704770471A689D
:102A800042F480321A60704700100240002382B086
:102A9000094A0193136813F4003F019B03F10103FA
:102AA0000193019B02D1B3F5A06FF3D1024B1868DB
:102AB000C0F3404002B0704700100240034A136860
:102AC00023F0F80343EAC000106070470010024092
:102AD000014B1860704700BF00004242034A536830
:102AE00023F47C13194301435160704700100240E6
:102AF000014B1860704700BF60004242034A5368B0
:102B000023F0030318435060704700BF00100240D9
:102B1000024B586800F00C00704700BF00100240E4
:102B2000034A536823F0F00318435060704700BF16
:102B300000100240034A536823F4E06318435060D6
:102B4000704700BF00100240034A536823F46053EB
:102B500043EAC0005060704700100240044A1378F6
:102B600019B923EA000010707047184310707047BD
:102B700009100240014B1860704700BFD800424264
:102B8000034A536823F4404318435060704700BF22
:102B9000001002400022064B01281A701A7005D05E
:102BA000042802D105221A707047704718707047C8
:102BB00020100240014B1860704700BF8004424261
:102BC000024A136A18431062704700BF00100240A7
:102BD000014B1860704700BF3C0442421E4A10B4CB
:102BE000536803F00C03082B0FD153685168C3F3EB
:102BF0008343C90303F1020328D55268920325D405
:102C0000164A02FB03F3036001E0144B0360124910
:102C1000134A4C68C4F30314145DE34043604C68EA
:102C2000C4F30224145D23FA04F484604C68C4F3F2
:102C3000C224145DE340C360496810BCC1F3813114
:102C40000A44127CB3FBF2F303617047054A02FBAE
:102C500003F30360DBE700BF0010024000127A00BC
:102C6000B003002000093D00044A536919B923EA62
:102C700000005061704718435061704700100240D7
:102C8000044A936919B923EA000090617047184318
:102C90009061704700100240044AD36919B923EAD1
:102CA0000000D06170471843D061704700100240A7
:102CB000044AD36819B923EA0000D060704718436A
:102CC000D060704700100240044A136919B923EA22
:102CD00000001061704718431061704700100240F7
:102CE000014B1860704700BF40044242014B18601E
:102CF000704700BF4C004242014B1870704700BF44
:102D0000071002404309012B0BD0022B094B00F0A6
:102D10001F000CBF1B6A5B6A23FA00F000F0010081
:102D20007047044B00F01F001B6823FA00F000F00E
:102D30000100704700100240024A536A43F080735A
:102D40005362704700100240034B9B68184214BF47
:102D500001200020704700BF00100240014B187096
:102D6000704700BF0A10024008B5174B984206D0C2
:102D7000164B98421BD0164B98420CD008BD01212F
:102D80004FF48050FFF794FFBDE8084000214FF456
:102D90008050FFF78DBF01214FF40040FFF794FFF3
:102DA000BDE8084000214FF40040FFF78DBF01212E
:102DB0004FF48040FFF788FFBDE8084000214FF442
:102DC0008040FFF781BF00BF003001400038004065
:102DD000003C00404A880B8830B48C881343CA8872
:102DE00023430C8913434A898D8923431343CC8998
:102DF00002882B43234302F4415213430380838B05
:102E00000A8A23F400631B041B0C838330BC0282F8
:102E1000704700BFF0B505460C460220A98B244A36
:102E2000A3680A40AA832884AE8B022B87B0A088AF
:102E3000B6B23BD0002801A80CBF20274027FFF7DF
:102E4000CDFEE188019AB1F5007F25D0B2FBF7F203
:102E5000A06802EB82025300B3FBF0F305339BB290
:102E6000144AA088A2FB0323DB085A08971EFD2FF3
:102E700003F001038CBF022342EA03232288678800
:102E8000A4893A4342F40062224316430B430643AB
:102E90002B84AE8307B0F0BD120A02EB8202A06859
:102EA0005300B3FBF0F305339BB2D9E7E188E5E7C4
:102EB00040F0FFFFCDCCCCCC002307220360028280
:102EC00043608360C360704700230222C0E900337F
:102ED00082608381704700BF038829B923F04003D3
:102EE0001B041B0C0380704743F0400303807047B2
:102EF000838B29B923F480631B041B0C83837047E5
:102F000043F4806383837047012309098B409BB29C
:102F100081881AB921EA0303838070470B438380B9
:102F2000704700BF83881AB923EA01018180704786
:102F300019438180704700BF818170478089704745
:102F40004FF6FF639942038805BF23F480731B0487
:102F500043F480731B0C0380704700BF838829B93A
:102F600023F004031B041B0C8380704743F004030D
:102F700083807047038823F400631B041B0C0380C9
:102F80000388194301807047038843F4805303800A
:102F9000704700BF038829B923F400531B041B0C9E
:102FA0000380704743F4005303807047012914BF26
:102FB000008B808A80B27047008A70470388B1F521
:102FC000804F1BBF23F480431B0443F480431B0C3E
:102FD000038070470389194214BF01200020704705
:102FE000C94389B201817047012230B401F00F0357
:102FF0008488058902FA03F0284006D00909A4B2A2
:103000008A40144214BF0120002030BC704700BF2A
:10301000012301F00F018B40DB439BB2038170471A
:1030200008B5264B984218D0254B984221D0254B05
:1030300098422AD0244B984233D0244B984200D057
:1030400008BD01214FF48010FFF73EFEBDE80840A7
:1030500000214FF48010FFF737BE01214FF480406C
:10306000FFF726FEBDE8084000214FF48040FFF73F
:103070001FBE01214FF40030FFF726FEBDE80840D7
:1030800000214FF40030FFF71FBE01214FF48020D4
:10309000FFF71AFEBDE8084000214FF48020FFF73B
:1030A00013BE01214FF40020FFF70EFEBDE80840DB
:1030B00000214FF40020FFF707BE00BF0038014099
:1030C0000044004000480040004C004000500040D8
:1030D00030B50D460446038ACA889BB223F4405398
:1030E00013438A8903828089234B89880340288976
:1030F0000B43698903430B43A381A38A87B09BB227
:1031000023F44073134301A8A382FFF767FDDDE9B1
:1031100003311A482A68844208BF0B46A18903EB91
:10312000830309044CBF5200920003EB8303B3FBFB
:10313000F2F364221248A589A0FB03C1490902FBEE
:1031400011332A044FEA01110AD41B013233A0FBC8
:103150000323C3F343130B439BB2238107B030BD5A
:10316000DA003232A0FB0232C2F3421242EA010319
:103170009BB2238107B030BDF3E9FFFF0038014067
:103180001F85EB5100234FF416514FF4402201608C
:10319000C0E901328381704730B40B884D888C8838
:1031A000028A2B43C988234392B20B4322F47062F4
:1031B0001343038230BC70470023036043607047B1
:1031C000838929B923F400531B041B0C83817047A6
:1031D00043F4005383817047012310B401F01F04AE
:1031E000C1F34211012903FA04F30FD002290CBFE5
:1031F000103014302AB9026810BC22EA03030360BD
:103200007047026810BC1343036070470C30F1E74D
:10321000838A1AB923EA01018182704719438182A6
:10322000704700BF038A23F00F031B041B0C0382AB
:10323000038A194301827047838923F400631B04C6
:103240001B0C83818389194381817047838929B944
:1032500023F002031B041B0C8381704743F002031D
:1032600083817047038A23F020031B041B0C038215
:10327000038A194301827047038A29B923F48043E2
:103280001B041B0C0382704743F480430382704786
:10329000C1F30801818070478088C0F3080070473F
:1032A000838943F001038381704700BF038BDBB246
:1032B0000383038B43EA012101837047038B03F4EB
:1032C0007F430383038B194301837047838A29B9A2
:1032D00023F020031B041B0C8382704743F0200360
:1032E00083827047838A29B923F010031B041B0CC7
:1032F0008382704743F0100383827047838A29B921
:1033000023F008031B041B0C8382704743F008035F
:1033100083827047838919B9C3F30E038381704791
:1033200043F4004383817047838A29B923F40063FF
:103330001B041B0C8382704743F400638382704735
:10334000838A23F004031B041B0C8382838A1943A2
:1033500081827047838A29B923F002031B041B0C66
:103360008382704743F002038382704703881942C7
:1033700014BF012000207047C94389B20180704703
:103380000123C1F3421210B4012A01F01F0403FA11
:1033900004F314D0022A0CBF028A828A13400288E6
:1033A00092B24BB10123090A03FA01F10A4214BF98
:1033B0001846002010BC7047184610BC7047828920
:1033C0001340ECE70123090A8B40DB439BB20380E7
:1033D000704700BF81F0004102E000BF83F000436E
:1033E00030B54FEA41044FEA430594EA050F08BFA0
:1033F00090EA020F1FBF54EA000C55EA020C7FEA64
:10340000645C7FEA655C00F0E2804FEA5454D4EBE0
:103410005555B8BF6D420CDD2C4480EA020281EAAA
:10342000030382EA000083EA010180EA020281EAE2
:103430000303362D88BF30BD11F0004F4FEA013134
:103440004FF4801C4CEA113102D0404261EB410143
:1034500013F0004F4FEA03334CEA133302D05242C9
:1034600063EB430394EA050F00F0A780A4F1010485
:10347000D5F1200E0DDB02FA0EFC22FA05F28018BF
:1034800041F1000103FA0EF2801843FA05F35941A5
:103490000EE0A5F120050EF1200E012A03FA0EFC24
:1034A00028BF4CF0020C43FA05F3C01851EBE3714E
:1034B00001F0004507D54FF0000EDCF1000C7EEB6B
:1034C00000006EEB0101B1F5801F1BD3B1F5001FA9
:1034D0000CD349085FEA30004FEA3C0C04F10104C8
:1034E0004FEA445212F5800F80F09A80BCF1004FF1
:1034F00008BF5FEA500C50F1000041EB045141EA73
:10350000050130BD5FEA4C0C404141EB010111F473
:10351000801FA4F10104E9D191F0000F04BF01461E
:103520000020B1FA81F308BF2033A3F10B03B3F1FC
:1035300020020CDA0C3208DD02F1140CC2F10C028C
:1035400001FA0CF021FA02F10CE002F11402D8BFEA
:10355000C2F1200C01FA02F120FA0CFCDCBF41EAB6
:103560000C019040E41AA2BF01EB0451294330BD85
:103570006FEA04041F3C1CDA0C340EDC04F1140462
:10358000C4F1200220FA04F001FA02F340EA030039
:1035900021FA04F345EA030130BDC4F10C04C4F17F
:1035A000200220FA02F001FA04F340EA030029465F
:1035B00030BD21FA04F0294630BD94F0000F83F4A9
:1035C000801306BF81F480110134013D4EE77FEA8C
:1035D000645C18BF7FEA655C29D094EA050F08BFD8
:1035E00090EA020F05D054EA000C04BF19461046B9
:1035F00030BD91EA030F1EBF0021002030BD5FEAFD
:10360000545C05D14000494128BF41F0004130BD24
:1036100014F580043CBF01F5801130BD01F0004578
:1036200045F0FE4141F470014FF0000030BD7FEAEB
:10363000645C1ABF194610467FEA655C1CBF0B46E6
:10364000024650EA013406BF52EA033591EA030FFD
:1036500041F4002130BD00BF90F0000F04BF0021F5
:10366000704730B54FF4806404F132044FF0000528
:103670004FF0000150E700BF90F0000F04BF0021A1
:10368000704730B54FF4806404F1320410F0004507
:1036900048BF40424FF000013EE700BF42004FEA02
:1036A000E2014FEA31014FEA02701FBF12F07F437F
:1036B00093F07F4F81F06051704732F07F4208BF36
:1036C000704793F07F4F04BF41F40021704730B53D
:1036D0004FF4607401F0004521F000411CE700BF89
:1036E00050EA010208BF704730B54FF000050AE00C
:1036F00050EA010208BF704730B511F0004502D50D
:10370000404261EB41014FF4806404F132045FEA0E
:10371000915C3FF4D8AE4FF003025FEADC0C18BFB7
:1037200003325FEADC0C18BF033202EBDC02C2F1A9
:10373000200300FA03FC20FA02F001FA03FE40EA3B
:103740000E0021FA02F11444BDE600BF70B54FF03F
:10375000FF0C4CF4E06C1CEA11541DBF1CEA13551D
:1037600094EA0C0F95EA0C0F00F0DEF82C4481EA85
:10377000030621EA4C5123EA4C5350EA013518BFA5
:1037800052EA033541F4801143F4801338D0A0FB92
:1037900002CE4FF00005E1FB02E506F00042E0FB3F
:1037A00003E54FF00006E1FB03569CF0000F18BF45
:1037B0004EF0010EA4F1FF04B6F5007F64F54074ED
:1037C00004D25FEA4E0E6D4146EB060642EAC62180
:1037D00041EA55514FEAC52040EA5E504FEACE2EED
:1037E000B4F1FD0C88BFBCF5E06F1ED8BEF1004FF0
:1037F00008BF5FEA500E50F1000041EB045170BD6C
:1038000006F0004646EA010140EA020081EA0301AF
:10381000B4EB5C04C2BFD4EB0C0541EA045170BDAB
:1038200041F480114FF0000E013C00F3AB8014F125
:10383000360FDEBF002001F0004170BDC4F100046E
:10384000203C35DA0C341BDC04F11404C4F12005EF
:1038500000FA05F320FA04F001FA05F240EA02004A
:1038600001F0004221F0004110EBD37021FA04F680
:1038700042EB06015EEA430E08BF20EAD37070BD3A
:10388000C4F10C04C4F1200500FA04F320FA05F099
:1038900001FA04F240EA020001F0004110EBD3709B
:1038A00041F100015EEA430E08BF20EAD37070BD0B
:1038B000C4F1200500FA05F24EEA020E20FA04F3E4
:1038C00001FA05F243EA020321FA04F001F0004193
:1038D00021FA04F220EA020000EBD3705EEA430E04
:1038E00008BF20EAD37070BD94F0000F0FD101F033
:1038F0000046400041EB010111F4801F08BF013C6C
:10390000F7D041EA060195F0000F18BF704703F0A9
:103910000046520043EB030313F4801F08BF013D30
:10392000F7D043EA0603704794EA0C0F0CEA1355EC
:1039300018BF95EA0C0F0CD050EA410618BF52EAA6
:103940004306D1D181EA030101F000414FF00000AC
:1039500070BD50EA410606BF1046194652EA4306BA
:1039600019D094EA0C0F02D150EA013613D195EA2E
:103970000C0F05D152EA03361CBF104619460AD176
:1039800081EA030101F0004141F0FE4141F4700180
:103990004FF0000070BD41F0FE4141F4780170BD70
:1039A00070B54FF0FF0C4CF4E06C1CEA11541DBFD5
:1039B0001CEA135594EA0C0F95EA0C0F00F0A7F8D7
:1039C000A4EB050481EA030E52EA03354FEA013104
:1039D00000F088804FEA03334FF0805545EA131317
:1039E00043EA12634FEA022245EA111545EA1065DF
:1039F0004FEA00260EF000419D4208BF964244F176
:103A0000FD0404F5407402D25B084FEA3202B61A94
:103A100065EB03055B084FEA32024FF480104FF468
:103A2000002CB6EB020E75EB030E22BFB61A7546DC
:103A300040EA0C005B084FEA3202B6EB020E75EB6F
:103A4000030E22BFB61A754640EA5C005B084FEAD7
:103A50003202B6EB020E75EB030E22BFB61A7546A4
:103A600040EA9C005B084FEA3202B6EB020E75EBAF
:103A7000030E22BFB61A754640EADC0055EA060E70
:103A800018D04FEA051545EA16754FEA06164FEAB3
:103A9000C30343EA52734FEAC2025FEA1C1CC0D15F
:103AA00011F4801F0BD141EA00014FF000004FF0EC
:103AB000004CB6E711F4801F04BF01430020B4F1AD
:103AC000FD0C88BFBCF5E06F3FF6AFAEB5EB030C65
:103AD00004BFB6EB020C5FEA500C50F1000041EB62
:103AE000045170BD0EF0004E4EEA113114EB5C042F
:103AF000C2BFD4EB0C0541EA045170BD41F4801102
:103B00004FF0000E013C90E645EA060E8DE60CEA09
:103B1000135594EA0C0F08BF95EA0C0F3FF43BAF26
:103B200094EA0C0F0AD150EA01347FF434AF95EADD
:103B30000C0F7FF425AF104619462CE795EA0C0FC1
:103B400006D152EA03353FF4FDAE1046194622E78E
:103B500050EA410618BF52EA43067FF4C5AE50EA68
:103B600041047FF40DAF52EA43057FF4EBAE12E758
:103B7000844641EA000313F0030349D1403A23D3BA
:103B80000B6803604B6843608B688360CB68C360DD
:103B90000B6903614B6943618B698361CB69C361C5
:103BA0000B6A03624B6A43628B6A8362CB6AC362AD
:103BB0000B6B03634B6B43638B6B8363CB6BC36395
:103BC00040304031403ADBD230320BD30B680360D7
:103BD0004B6843608B688360CB68C36010301031E2
:103BE000103AF3D20C3205D351F8043B40F8043BB1
:103BF000043AF9D2043208D0D2071CBF11F8013BB5
:103C000000F8013B01D30B8803806046704700BF7A
:103C1000082A13D38B07B1D010F00303AED0C3F141
:103C20000403D21ADB071CBF11F8013B00F8013B6B
:103C3000A4D331F8023B20F8023B9FE7043AD9D3E2
:103C4000013A11F8013B00F8013BF9D20B780370FF
:103C50004B7843708B788370604670474FF0FF3C21
:103C600006E000BF4FF0010C02E000BF4FF0010C76
:103C70004DF804CD4FEA410C7FEA6C5C4FEA430CEF
:103C800018BF7FEA6C5C1BD001B050EA410C0CBF3E
:103C900052EA430C91EA030F02BF90EA020F0020A0
:103CA000704710F1000F91EA030F58BF994208BF07
:103CB00090422CBFD8176FEAE37040F001007047C4
:103CC0004FEA410C7FEA6C5C02D150EA013C07D11B
:103CD0004FEA430C7FEA6C5CD6D152EA033CD3D066
:103CE0005DF8040B704700BF8446104662468C4660
:103CF0001946634600E000BF01B5FFF7B7FF002893
:103D000048BF10F1000F01BD4DF808EDFFF7F4FFBB
:103D10000CBF012000205DF808FB00BF4DF808ED46
:103D2000FFF7EAFF34BF012000205DF808FB00BF69
:103D30004DF808EDFFF7E0FF94BF012000205DF88B
:103D400008FB00BF4DF808EDFFF7CEFF94BF012040
:103D500000205DF808FB00BF4DF808EDFFF7C4FF39
:103D600034BF012000205DF808FB00BF4FEA410C82
:103D70007FEA6C5C02D150EA013C0AD14FEA430C65
:103D80007FEA6C5C02D152EA033C02D14FF00000A2
:103D900070474FF0010070474FEA410212F50012E0
:103DA00015D211D56FF47873B3EB625212D94FEA82
:103DB000C12343F0004343EA505311F0004F23FA6C
:103DC00002F018BF404270474FF00000704750EAC1
:103DD000013005D111F0004008BF6FF0004070477E
:103DE0004FF00000704700BF53B94AB9002908BF1F
:103DF00000281CBF4FF0FF314FF0FF3000F074B9C6
:103E0000ADF1080C6DE904CE00F006F8DDF804E031
:103E1000DDE9022304B070472DE9F0478C460446E3
:103E2000089E002B4BD18A42154667D9B2FA82F21E
:103E30004AB1C2F1200701FA02F320FA07F79540D0
:103E400047EA030C94404FEA154EBCFBFEF71FFAFD
:103E500085F80EFB17C307FB08F9210C41EA034361
:103E6000994509D9EB1807F1FF3180F01C8199457C
:103E700040F21981023F2B44A3EB0903B3FBFEF090
:103E80000EFB103300FB08F1A4B244EA0344A14244
:103E900009D92C1900F1FF3380F00781A14240F2CB
:103EA000048102382C4440EA07400027641A1EB1FE
:103EB0000023D440C6E900433946BDE8F0878B4271
:103EC00009D9002E00F0EC800027C6E90001384631
:103ED0003946BDE8F087B3FA83F7002F48D18B420B
:103EE00002D3824200F2FB80841A61EB03030120BB
:103EF0009C46002EE0D0C6E9004CDDE702B9FFDEAB
:103F0000B2FA82F2002A40F08F800127491B4FEA63
:103F100015481FFA85F9B1FBF8FE08FB1E1109FBD5
:103F20000EF04FEA144C4CEA0143984207D9EB18C3
:103F30000EF1FF3102D2984200F2CD808E461B1A5C
:103F4000B3FBF8F008FB103309FB00F9A4B244EA14
:103F50000344A14507D92C1900F1FF3302D2A14532
:103F600000F2B6801846A4EB090440EA0E409EE732
:103F7000C7F12005BB4022FA05FC4CEA030C21FAEC
:103F800005F44FEA1C4EB4FBFEF91FFA8CF80EFB49
:103F9000194420FA05F3B94009FB08FA19430B0C40
:103FA00043EA0444A24502FA07F200FA07F30BD9E8
:103FB0001CEB040409F1FF3080F08880A24540F238
:103FC0008580A9F102096444A4EB0A04B4FBFEF065
:103FD0000EFB104400FB08FA89B241EA0444A245F2
:103FE00008D91CEB040400F1FF316BD2A24569D95A
:103FF0000238644440EA0940A0FB0289A4EB0A04A9
:104000004C454146CE4654D351D0002E69D05A1A61
:1040100064EB0E0404FA05F522FA07F3FC401D4395
:10402000C6E90054002747E79540C2F1200321FA72
:1040300003F04FEA1548B0FBF8F71FFA85F908FBC3
:10404000170024FA03F3914007FB09FC0B43190CFA
:1040500041EA00418C4504FA02F407D9691807F1D6
:10406000FF3031D28C452FD9023F2944A1EB0C01FE
:10407000B1FBF8F008FB101C00FB09FE99B241EA05
:104080000C418E4507D9691800F1FF3318D28E45CF
:1040900016D902382944A1EB0E0140EA07473AE756
:1040A0003746304608E70F46E6E61846FBE6434546
:1040B000ABD2B8EB020169EB0C0201389646A4E7DB
:1040C0001846E8E7084695E70746CFE781467BE7CD
:1040D00002382C4447E7AEF1020E2B442FE7384656
:1040E00007E73746E8E600BF704700BF70B50D4EE2
:1040F0000D4D761BB61006D00024013455F8043B54
:104100009847A642F9D1094E094D05F06FFB761B81
:10411000B61006D00024013455F8043B9847A64257
:10412000F9D170BD509C0008509C0008589C0008B4
:10413000509C0008F0B4860743D0541E002A3ED09D
:10414000CAB2034602E014F1FF3438D303F8012B5E
:104150009D07F8D1032C2BD9CDB245EA05250F2CAC
:1041600045EA054516D9A4F110073F0903F12006D9
:1041700006EB071603F1100242E9045542E9025525
:104180001032B242F8D104F00F040137032C03EBD4
:1041900007130DD91E462246043A032A46F8045B4B
:1041A000FAD8221F22F003020432134404F003045D
:1041B0002CB1C9B21C4403F8011B9C42FBD1F0BCDA
:1041C000704714460346C5E7024B13B1024800F09E
:1041D00005B8704700000000E941000800230146CF
:1041E0001A46184600F022B838B50A4C0A4D641B2E
:1041F000A4100AD004F18043013B05EB8305013C88
:1042000055F804399847002CF9D1BDE8384005F03D
:10421000F3BA00BF5C9C0008589C0008704700BFC0
:10422000704700BF704700BF704700BF2DE9F843DB
:104230002B4D0646286898460F469146FFF7F2FF39
:10424000284B1C68D4F84831002B3DD05A681F2AEF
:104250000DDC02F1010C16BB0232C3F804C0286861
:1042600043F82270FFF7E0FF0020BDE8F8831E4B03
:104270007BB34FF4C87000F0C7F9034648B3002081
:10428000D4F848114FF0010CC3E900100246C4F8FD
:104290004831C3F88801C3F88C01002EDCD001211D
:1042A00003EB8204C4F88890D3F888019140084356
:1042B000022EC3F88801C4F80881CDD1D3F88C014F
:1042C0000143C3F88C11C7E704F5A673C4F848315D
:1042D000BCE72868FFF7A8FF4FF0FF30C5E700BF35
:1042E000F00700200898000809460008A24BA34ADE
:1042F0001B68A2FB03239B09013BB3F1807F00D322
:10430000FEE700240721F0252DE980489C4A9D48BE
:10431000DFF898829C4F536080F8235094601160BE
:104320003B68454608F1E0068DB043F00103304696
:104330003B60FCF7D3FE0523049655F8D86F934AEB
:104340009349AE42CDF81640CDF81A40C8F8202166
:10435000CDF81E40ADF82240ADF81430069111D0D2
:10436000A6F10C02134604E0D868A842A0F10C03A1
:1043700008D098688842F7D198880528F4D10DF1C3
:10438000100A14E0142000F03FF90DF1100A8646DF
:10439000D4460446BCE80F000EF10C0C0FC4C6F85E
:1043A00004C07246CEE903656646C8F8D8C000234B
:1043B0000824FA207749ADF804300DF104098DF88E
:1043C00005406C44CDF81630CDF81A30CDF81E30CB
:1043D000ADF82230ADF80600ADF814000691CDF826
:1043E0001090CDE9024404E0D368AB42A3F10C0283
:1043F00075D093688B42F7D19388FA2BF4D10023C0
:10440000CDF81630ADF81A30634B012009932346DE
:104410006249634ACDF81090CDE90712ADF8140057
:104420000AAA5A6000200292CDE90A34FDF786F903
:104430000499BDF816E061B34B680431994228D065
:10444000BDF814C033F8140CA3F1180260451646E9
:104450000AD0B0698142A0F11806044600F08A80B3
:1044600030F8140C6045F4D1A6F806E0994210D05B
:1044700033F8143CBDF81400834208D09369994284
:10448000A3F1180205D033F8143C8342F6D1CC23B3
:10449000D380FDF779FA3B68DB0702D5414800F08D
:1044A000CBFB0026D8F8D8403F4F3B68002BFCD010
:1044B000AC423E60F9D00C3CE388A28801339BB249
:1044C0009A42E3804ED8A368E68020689847E36864
:1044D000AB42A3F10C04EFD1D8F8D840E5E71420A3
:1044E00000F092F8D44686468346BCE80F004FF0B1
:1044F000010A4FF0000CABE80F000EF10C027260E5
:10450000029B26482649C8F8D820234AA342CDF862
:104510001AC0CDF826C0CEE90365CDF81090CDF8CD
:1045200016C0CDF82AC0ADF82EC0ADF814A0CDE964
:104530000701099214D0A3F118029C4210463FF4DF
:104540006FAF33F8141C514504D113E031F8141C3B
:1045500001290FD081698C42A1F11800F6D15FE7E3
:1045600023465DE7E368AB42A3F10C04A4D1D8F87D
:10457000D8409AE7214679E7AC030020D34D62107A
:1045800010E000E000ED00E0280E0020DD1700083C
:1045900015150008D11600082D1700083D17000852
:1045A0001D17000848990008200E002078020020FE
:1045B000002103E00B4B5B58435004310A480B4B7E
:1045C00042189A42F6D30A4A02E0002342F8043B1A
:1045D000084B9A42F9D3FDF725FAFFF787FDFFF75D
:1045E00085FE70475C9C000800000020740D0020D0
:1045F000740D0020300E0020FEE70000014B18680B
:10460000704700BFC4030020024B0146186800F049
:104610000BB800BFC4030020024B0146186803F02A
:10462000E5BA00BFC40300202DE9F04F01F10B05EE
:10463000162D83B0064623D8102900F2B68000F06C
:1046400085FA102518230220CC4F3B445C68A3F167
:104650000802944200F056816368E16823F0030386
:1046600023445A68A56842F00102E96030468D6033
:104670005A6000F071FA0834204603B0BDE8F08FAC
:1046800035F0070500F19180A94200F28E8000F01C
:104690005DFAB5F5FC7FC0F064816B0A00F08C8098
:1046A000042B00F23681AB0903F1390003F1380C19
:1046B000C100B24F39444C680839A14206D10CE020
:1046C000002A80F21B81E468A14206D0636823F0CF
:1046D00003035A1B0F2AF3DD60463C69DFF8B0C2C2
:1046E00064456FD0636823F003035A1B0F2A00F35D
:1046F0002681002AC7E904CC80F21781B3F5007F38
:1047000080F059810122DB08991013448A407968AE
:1047100057F833E007EBC3080A43A8F10801C4E9DE
:1047200002E17A6047F83340CEF80C400124831050
:104730009C4094424CD8144206D120F003006400FF
:10474000144200F10400FAD007EBC009CE468046BF
:10475000DEF80C309E4507D107E1002A80F21C816B
:10476000DB689E4500F00181596821F003014A1B76
:104770000F2AF2DD45F001083046D3E902E41D447A
:1047800042F00106C3F80480CEF80C40C4F808E0FB
:10479000C7E90455C5E902CC6E605A50019300F098
:1047A000DBF9019B03F1080466E700240C23204693
:1047B000336003B0BDE8F08F4FF4007140204FF03C
:1047C0003F0C76E701247A6883109C409442B2D96A
:1047D000BC68636823F00309A94503D3A9EB05036B
:1047E0000F2B7BDC664BDFF8ACA11A68DAF80030DF
:1047F00005EB0208013300F03A8108F5805808F112
:104800000F0828F47F6828F00F084146304600F072
:104810001BFAB0F1FF3F834600F0F68004EB09007D
:10482000584500F2EF80574A13684344136000F084
:104830003F81DAF8001001311BBFABEB00001B1801
:10484000CAF800B013601BF0070300F02681C3F123
:104850000801C3F580538B440833D844C8F30B08D0
:10486000A3EB080841463046019200F0EDF9431CE5
:10487000019A00F03881A0EB0B01414441F00101A5
:104880001368BC424344C7F808B01360CBF8041067
:1048900015D0B9F10F0F40F222814FF0050E61687B
:1048A000A9F10C0020F0070001F00101014304EB25
:1048B000000C0F286160CCE901EE00F22C81324A35
:1048C00032481168BC688B42016888BF1360626817
:1048D0008B4222F0030288BF036099E045F0010299
:1048E00043F00103254462603046BD6008346B60CC
:1048F00000F032F9204603B0BDE8F08F23445A6837
:10490000E168AFE6DC68A34208BF02303FF4E5AEE1
:10491000A2E6142B70D9542B00F2AC802B0B03F1C0
:104920006F0003F16E0CC100C3E623445A683046A1
:1049300042F001025A60083400F00EF99CE645F09E
:10494000010E42F001012544C4F804E03046C7E9F5
:104950000455C5E902CC6960E25000F0FDF8083466
:104960008AE6E80805F108036EE608F1010818F088
:10497000030F0EF1080E7FF4EBAE60E0F4070020A9
:10498000D80D0020A80D0020D00D0020D40D00204F
:10499000FC070020FC0B00201C4619444A68DB6819
:1049A00054F8085F42F001024A603046EB609D60B7
:1049B00000F0D2F860E65A0A042A35D9142A6FD8D2
:1049C00002F15C01C9005B3207EB010E7958AEF1D0
:1049D000080E8E4558D04A6822F003029A4202D946
:1049E00089688E45F7D1D1F80CE07A68C4E9021ED7
:1049F000CEF80840CC6099E603F15C0003F15B0C53
:104A0000C10056E6BC4272D0BC68626822F0030264
:104A10009542A2EB050302D80F2B3FF75FAF30465C
:104A200000F09AF8002427E69A0902F13901C9003A
:104A30003832C9E7D9F80090994540F0838010F0EA
:104A4000030FA9F1080300F1FF30F3D17B6823EADB
:104A500004037B6064009C423FF6BAAE1CB9B7E623
:104A6000640008F104081C42FAD040466CE608F1E4
:104A70001008CAE6B3F5AA7F26D8EB0B03F178003D
:104A800003F1770CC10014E64FF001087B68921027
:104A900008FA02F21A437A60A8E74FF48053DCE682
:104AA000542A29D81A0B02F16F01C9006E328BE724
:104AB000C0F30B0100297FF4BCAE09EB0802B96812
:104AC00042F001024A60FAE640F2545293421CD886
:104AD000AB0C03F17D0003F17C0CC100E9E501237F
:104AE000CBF804309BE701214FF00008C8E6164AD6
:104AF0001368434413609CE6B2F5AA7F14D8DA0B1E
:104B000002F17801C90077325EE74FF47E717F20B1
:104B10004FF07E0CCDE504F108013046019203F020
:104B200065F8019A1368CAE640F254518A4205D8E2
:104B30009A0C02F17D01C9007C3245E74FF47E7189
:104B40007E2241E77B6885E7A80D00200148FFF73A
:104B500069BB00BFEC0D00200148FFF765BB00BF3B
:104B6000EC0D00200FB410B5074B82B004AC54F824
:104B7000042B186823468168019400F0EFF802B016
:104B8000BDE8104004B07047C4030020024B01464A
:104B90001868826803F0FEBEC403002070B50546A5
:104BA00088B008460C4600F061F80122022621492F
:104BB000AB6B05900792104404AA04940390AC6870
:104BC0000296069101921BB3616EB4F90C30CE07C8
:104BD0009AB201D4900525D5910406D4626E43F4AF
:104BE000005322F40052A3816266284601AA21469E
:104BF00003F0F0F8636E00280CBF0A254FF0FF3574
:104C0000DA0702D4A3899B0506D5284608B070BDF3
:104C1000284602F05FFFD7E7A06DFFF705FB2846A7
:104C200008B070BDA06DFFF7FDFAB4F90C309AB270
:104C3000D2E700BFD8980008024B01461868FFF77A
:104C4000ADBF00BFC403002038B50023064C0546A5
:104C500008462360FCF7C2FF431C00D038BD236820
:104C6000002BFBD02B6038BD2C0E002020F0030160
:104C700010F00300C0F1000051F8043B00F1040CF7
:104C80004FEACC0C6FF000021CBF22FA0CF2134367
:104C90004FF0010C4CEA0C2C4CEA0C4CA3EB0C0230
:104CA00022EA030212EACC1204BF51F8043B04309A
:104CB000F4D0C2F1000102EA0102B2FA82F2C2F1BA
:104CC0001F0200EBD2007047002A3FD040EA0103E8
:104CD00013F00303F0B425D1032A23D904680D6827
:104CE000AC421FD1043A33D0A4F1013525EA0404C3
:104CF00014F0803F2FD1071D0D1D0DE057F8043B28
:104D00000E68A3F10134B34224EA03040AD1043A41
:104D10001ED014F0803F1BD1032A2946384605F1E6
:104D20000405EBD803780C78013A9C420BD17AB198
:104D300014B90DE062B173B110F8013F11F8014FE1
:104D4000013AA342F6D0181BF0BC704710467047DA
:104D50000020F0BC70471846F6E700BF2DE9F04F81
:104D6000D9B01C46894617460546079003F0D4F98A
:104D700003680C9418461A93FFF778FF18901DB13A
:104D8000AB6B002B00F00581D9F86410B9F90C2049
:104D9000C80793B202D4990540F11D819E040AD43C
:104DA000D9F8641042F4005321F40051A9F80C30F2
:104DB000C9F864109BB21D0740F1B080D9F81020EB
:104DC000002A00F0AB8003F01A020A2A00F0C78024
:104DD0000023199314931793CDE92D331D93CDE937
:104DE0001F3321931E930993CDE91B332FAB2C93D3
:104DF0009B463B78CDF82C90002B00F05282252B5F
:104E00003C4602D11BE0252B03D014F8013F002BB8
:104E1000F9D1E51B7DB1DDE92D3201332A44072BA1
:104E2000CBE90075CDE92D3200F3CA800BF1080BF8
:104E3000099B2B4409932378002B00F03282002336
:104E40004FF0FF3998462B2566780A938DF89330FA
:104E500004F1010A0AF1010AA6F120035A2B00F21B
:104E60002D84DFE813F0A2032B042B04F0022B04A3
:104E70002B042B04F5022B042B04140321032B0415
:104E800026032B032B0445036802680268026802AC
:104E9000680268026802680268022B042B042B0473
:104EA0002B042B042B042B049D022B04DC02EB03AC
:104EB0009D029D029D022B042B042B042B04E60370
:104EC0002B042B049A002B042B042B044A032B04E1
:104ED00071032B042B0488032B042B042B042B04B9
:104EE0002B042B042B042B049D022B04DC02C0009A
:104EF0009D029D029D02C903C00070002B04AD03FA
:104F00002B04BA039C00D60370002B044A037200E2
:104F100027022B042B0477022B04720049460798C2
:104F200001F0C0FCA0B1D9F86430D80704D4B9F8B6
:104F30000C30990540F1AF834FF0FF330993099886
:104F400059B0BDE8F08F48F020089AF8006081E77A
:104F5000B9F80C3003F01A020A2A7FF439AFB9F914
:104F60000E20002AFFF634AFD9F86420D20705D40A
:104F70009B0503D4D9F85800FFF756F923463A4663
:104F80004946079801F04AFC0990099859B0BDE8D4
:104F9000F08F079802F09EFDF6E648F0100818F032
:104FA000200F00F064830C9C073424F0070303F106
:104FB00008020C92D3E9004528F48063002287E1BF
:104FC0002CAA0B99079803F0BBFF002841F09183AE
:104FD0000DF1BC0B2CE7D9F85800FFF723F9B9F90C
:104FE0000C2093B2DAE643469F0640F12C830C9CDA
:104FF000073424F00704D4E9000104F108020D4647
:1050000004460C92002871F1000205DA2D22644258
:1050100065EB45058DF8932058AAB9F1FF3F08923A
:1050200000F0F784012254EA050123F0800840F0E3
:105030005981B9F1000F40F04A86002A40F04A85B4
:1050400013F001030D9300F09C86302358AF07F84E
:10505000013D002310931393CDE915330D9B9DF86B
:1050600093204B45B8BF4B46089312B1089B0133C0
:10507000089318F002030E9302D0089B02330893A2
:1050800018F084032E9C11933FD10A9B08995D1A56
:10509000002D3ADD102D2D9A29DD59462046229605
:1050A0001023079CBB460B9E04E0103D102D01F120
:1050B000080118DD0132B74F1030072ACDE92D2045
:1050C000C1E90073F1DD2CAA31462046129303F0AA
:1050D00037FF002840F03584DDE92D20103D102DEC
:1050E0002FA9129BE6DC5F4604468B46229E0132C6
:1050F000A84B2C44072ACDE92D24CBE9003500F339
:1051000030859DF893200BF1080B72B101202D9A88
:10511000044402440DF19301072ACDE92D24CBE983
:10512000001000F310840BF1080B0E9B6BB10221F1
:105130002D9B0C44013325AA072BCDE92D34CBE957
:10514000002100F30D840BF1080B119B802B00F064
:1051500025830D9BA9EB0305002D38DD102D2D9A1D
:1051600040F3FC868C4B59462046BB464FF0100955
:1051700037461C460B9E04E0103D102D01F108013E
:1051800015DD01321030072ACDE92D20C1E9004993
:10519000F2DD2CAA3146079803F0D2FE002840F039
:1051A000D083DDE92D20103D102D2FA9E9DC3E46EE
:1051B00023465F4604468B4601322C44072ACDE93C
:1051C0002D24CBE9003500F332840BF1080B18F4E1
:1051D000807F40F086822D9B0D9A01331444072B6B
:1051E0002E94CBE900722D9300F306840BF1080B8B
:1051F00018F0040F3BD00A9B089A9D1A002D36DD4B
:10520000102D2D9B21DD1026079FDDF82C8004E05A
:10521000103D102D0BF1080B17DD01335D4A1034E2
:10522000072BCDE92D34CBE90026F1DD2CAA414630
:10523000384603F085FE002840F0A685DDE92D34D0
:10524000103D102D0DF1BC0BE7DC0133514A2C440D
:10525000072BCDE92D34CBE9002508DD2CAA0B99CD
:10526000079803F06DFE002840F0DE822E9C08991E
:10527000DDE909328A42ACBF9B185B180993002C08
:1052800040F0CA8200232D93109B1BB11099079800
:1052900002F0ACFC57460DF1BC0B3B78002B7FF4C1
:1052A000AEAD2E9BDDF82C90002B41F02381002326
:1052B0002D93C0E243469A0640F14B810C9C073483
:1052C00024F0070202F10801D2E9004501220C9105
:1052D0000021B9F1FF3F8DF8931058A908917FF490
:1052E000A2AE9846012A00F09583022A00F0B3820C
:1052F00058A900E03946E20842EA4572E80804F09D
:10530000070305461446303354EA050201F8013C10
:1053100001F1FF37EED118F0010F00F0AC82302B15
:1053200000F0A9823023089A0239521A07F8013C8A
:105330000D920F468DE60022A6F130031AF8016B9C
:1053400002EB820203EB4202A6F13003092BF5D9EE
:105350000A9281E5114B18F0200F1D9300F0118186
:105360000C9C073424F0070303F108020C92D3E9E4
:10537000004518F0010F09D054EA050306D0302388
:105380008DF8956048F002088DF89430022228F4D8
:1053900080639DE7CC990008DC9900089899000883
:1053A0000C9C073424F0070CDCE90023179323F04E
:1053B0000043199215461046089319460CF108044B
:1053C0004FF0FF32B84B0C94FEF7D0FC002840F0B1
:1053D000DD84284608994FF0FF32B34BFEF7A8FC56
:1053E000002840F0D3841B9A19981C9B1799FEF74C
:1053F00095FC002840F0D5859DF8932003200021DE
:10540000AA4FAB4B0890109128F080080D90894668
:105410001391CDE91511472ED8BF1F4625E600236D
:1054200001200C9C1A4621688DF893301093994600
:105430001393CDE91533231D08900D908DF8FC10C2
:105440000C933FAF15E648F001089AF8006001E5BB
:10545000079E304602F060FE436818461E93FFF731
:1054600005FC21900446304602F056FE83682093E6
:10547000002C3FF46AAD9AF80060002B3FF4EAACD0
:105480001B78002B3FF4E6AC48F48068E2E40C9B08
:105490009AF800601A680433002A0A920C93BFF647
:1054A000D9AC53420A9306E08DF893509AF8006005
:1054B000D0E49AF8006048F00408CBE49AF8006061
:1054C0000AF101022A2E01F07281A6F13003092BA4
:1054D00092464FF000093FF6BFAC1AF8016B09EB9A
:1054E000890903EB4909A6F13003092BF5D9B3E487
:1054F00048F080089AF80060ACE400250C9B8DF819
:1055000093501F681C1D002F00F05286B9F1FF3F19
:1055100000F018874A462946384602F083FE10906C
:10552000002800F00486A946109BDB1BCDE90C4344
:1055300023EAE3730893CDF84090CDF84C90CDE981
:1055400015999DF8932090E548F010039A063FF5D1
:10555000B5AE0C9ADF0602F1040100F1B2835D06DC
:105560000C9A00F118859C0540F1AB831478002556
:1055700001220C91ACE64F4B18F0200F1D937FF4E5
:10558000EFAE0C9A18F0100F02F1040340F08F8375
:1055900018F0400F0C9A40F0F18418F4007F00F0EE
:1055A0008683147800250C93E3E69DF893309AF8EF
:1055B0000060002B7FF44EAC20238DF8933049E43B
:1055C0009AF800606C2E03BF9AF8016048F020083A
:1055D0000AF1010A48F010083CE40C9A18F0200F78
:1055E00052F8043B0C9200F07684099A5746104614
:1055F000D117C3E9000150E69AF80060682E03BF96
:105600009AF8016048F400780AF1010A48F040086D
:1056100020E447F630020C99ADF894200A1D0C9254
:10562000254A0C681D9248F00203002502227826C4
:105630004EE648F008089AF800600BE448F01003C2
:105640009F063FF5D4AC0C99DD0601F1040200F190
:1056500042835C060C9900F19684980540F13B83E7
:1056600091F900400C92E51720462946CAE40C9AAD
:1056700018F0100F02F1040340F01E8318F0400FE1
:105680000C9A40F0768418F4007F00F015831478AB
:1056900000250C9390E4D9F85800FEF7C5FD4FF0B3
:1056A000FF3309934BE400BFFFFFEF7F8C990008A5
:1056B00088990008AC99000898990008002E3FF4DA
:1056C000F0AD002301211A4608918DF8FC608DF899
:1056D0009330109399461393CDE915330D913FAF55
:1056E000C7E4652E40F3CC801B9A19981C9B179930
:1056F000FEF70AFB002800F0A78101212D9B9F4A9D
:105700000B440C44072B2E942D93CBE9002100F37E
:1057100019840BF1080B269B149A2E9C934203DBF1
:1057200018F0010F3FF464AD2D9B189A01331A99BC
:105730001444072BCBE90012CDE92D3400F32B855F
:105740000BF1080B149B5D1E002D7FF751AD102D42
:105750002D9A40F3CC878A4B10261946079F234683
:10576000DDF82C900C4605E00BF1080B103D102DD8
:1057700040F3CA8301321033072ACDE92D23CBE948
:105780000046F1DD2CAA4946384603F0D9FB002833
:105790004CD1DDE92D230DF1BC0BE7E70A9B089AFC
:1057A0009D1A002D7FF7D5AC102D2D9A744B27DD57
:1057B00059462046BB461C4637460B9E04E0103D2A
:1057C000102D01F1080116DD102301321030072AD7
:1057D000CDE92D200C604B60F1DD2CAA31460798F5
:1057E00003F0AEFB002840F0AC80DDE92D20103D39
:1057F000102D2FA9E8DC3E4623465F4604468B4623
:1058000001322C44072ACDE92D24CBE9003500F3E1
:105810006E830BF1080B9CE42CAA0B99079803F0FC
:105820008FFB00283FF42EADDDF82C90109911B1BC
:10583000079802F0DBF9D9F86420B9F80C30D007EA
:1058400002D4990540F10E825A063FF575AB0998CE
:1058500059B0BDE8F08F1D9858AF230943EA05738E
:10586000290904F00F020D461C46835C07F8013D30
:1058700054EA0503F1D1089BDB1B0D93FFF7E9BB4D
:10588000621C0D92149A2D9B012A03F101050BF164
:10589000080640F3528101230D9A072DCBF80070C2
:1058A000CDE92D52CBF8043000F3E381189B0D991C
:1058B00001351A9A1944072D0D91CDE92D51C6E9EC
:1058C000002300F3E78108366C1C11940E94149C9D
:1058D0001B9A19981C9B179904F1FF3906F1080BC4
:1058E000FEF712FA002840F0FA800D9B0E9C4B4404
:1058F0000137072C0D9337602E93C6F804902D9432
:1059000000F30F8306F110035E469B46AA1C0E921D
:105910001F9A0D99726011440E9A28AB072A0C4603
:105920002E912D9233607FF763AC2CAA0B990798C8
:1059300003F006FB00287FF477AF0DF1BC0B2E9C23
:1059400056E4B14672E72CAA0B99079803F0F8FACF
:1059500000287FF469AF0DF1BC0B2E9CFFF7E5BB6F
:105960002CAA0B99079803F0EBFA00287FF45CAFA0
:105970000DF1BC0B2E9CFFF7E8BB00BFC8990008D7
:10598000DC99000801202D9AC04902440444072AEA
:10599000CDE92D24CBE9001040F3E3822CAA0B992A
:1059A000079803F0CDFA00287FF43EAF269B2E9C8B
:1059B0000DF1BC0B2BB9149A1AB918F0010F3FF472
:1059C00017AC2D9A189901321A980C44072A2E9474
:1059D000CBE900012D9200F30A850BF1080B002B97
:1059E000C0F29285149B01321C44072ACDE92D2474
:1059F000CBE900737FF7FAAB2CAA0B99079803F059
:105A00009FFA00287FF410AF2E9C0DF1BC0BFFF71E
:105A1000EFBB9846002D08BF0A2C80F0638101235C
:105A200058AF303407F8014D0D93FFF712BB2CAA85
:105A30000B99079803F084FA00287FF4F5AE0DF176
:105A4000BC0B2E9CFFF7C3BB269B002B9ADDDDE928
:105A500014239342A8BF1346002B1D460BDD2D9B3C
:105A60002C440133072B2E94CBE900752D9300F3C2
:105A70009E820BF1080B159B002DA8BF5B1B002B12
:105A80001D4640F38D80102B2D9A40F38486804B69
:105A90002146184610265B46DDF81C90BB460B9C41
:105AA000074603E00833103D102D69DD0132103147
:105AB000072ACDE92D21C3E90076F3DD2CAA214682
:105AC000484603F03DFA002840F06984DDE92D21C5
:105AD0002FABE8E7CDF8349058AFFFF7BABAB9F179
